{
  "_format": "hh3-artifact-1",
  "contractName": "DJPass",
  "sourceName": "contracts/DJPass.sol",
  "abi": [
    {
      "inputs": [
        {
          "internalType": "string",
          "name": "baseURI",
          "type": "string"
        }
      ],
      "stateMutability": "nonpayable",
      "type": "constructor"
    },
    {
      "inputs": [],
      "name": "ApprovalCallerNotOwnerNorApproved",
      "type": "error"
    },
    {
      "inputs": [],
      "name": "ApprovalQueryForNonexistentToken",
      "type": "error"
    },
    {
      "inputs": [],
      "name": "BalanceQueryForZeroAddress",
      "type": "error"
    },
    {
      "inputs": [],
      "name": "MintERC2309QuantityExceedsLimit",
      "type": "error"
    },
    {
      "inputs": [],
      "name": "MintToZeroAddress",
      "type": "error"
    },
    {
      "inputs": [],
      "name": "MintZeroQuantity",
      "type": "error"
    },
    {
      "inputs": [],
      "name": "NotCompatibleWithSpotMints",
      "type": "error"
    },
    {
      "inputs": [
        {
          "internalType": "address",
          "name": "owner",
          "type": "address"
        }
      ],
      "name": "OwnableInvalidOwner",
      "type": "error"
    },
    {
      "inputs": [
        {
          "internalType": "address",
          "name": "account",
          "type": "address"
        }
      ],
      "name": "OwnableUnauthorizedAccount",
      "type": "error"
    },
    {
      "inputs": [],
      "name": "OwnerQueryForNonexistentToken",
      "type": "error"
    },
    {
      "inputs": [],
      "name": "OwnershipNotInitializedForExtraData",
      "type": "error"
    },
    {
      "inputs": [],
      "name": "SequentialMintExceedsLimit",
      "type": "error"
    },
    {
      "inputs": [],
      "name": "SequentialUpToTooSmall",
      "type": "error"
    },
    {
      "inputs": [],
      "name": "SpotMintTokenIdTooSmall",
      "type": "error"
    },
    {
      "inputs": [],
      "name": "TokenAlreadyExists",
      "type": "error"
    },
    {
      "inputs": [],
      "name": "TransferCallerNotOwnerNorApproved",
      "type": "error"
    },
    {
      "inputs": [],
      "name": "TransferFromIncorrectOwner",
      "type": "error"
    },
    {
      "inputs": [],
      "name": "TransferToNonERC721ReceiverImplementer",
      "type": "error"
    },
    {
      "inputs": [],
      "name": "TransferToZeroAddress",
      "type": "error"
    },
    {
      "inputs": [],
      "name": "URIQueryForNonexistentToken",
      "type": "error"
    },
    {
      "anonymous": false,
      "inputs": [
        {
          "indexed": true,
          "internalType": "address",
          "name": "owner",
          "type": "address"
        },
        {
          "indexed": true,
          "internalType": "address",
          "name": "approved",
          "type": "address"
        },
        {
          "indexed": true,
          "internalType": "uint256",
          "name": "tokenId",
          "type": "uint256"
        }
      ],
      "name": "Approval",
      "type": "event"
    },
    {
      "anonymous": false,
      "inputs": [
        {
          "indexed": true,
          "internalType": "address",
          "name": "owner",
          "type": "address"
        },
        {
          "indexed": true,
          "internalType": "address",
          "name": "operator",
          "type": "address"
        },
        {
          "indexed": false,
          "internalType": "bool",
          "name": "approved",
          "type": "bool"
        }
      ],
      "name": "ApprovalForAll",
      "type": "event"
    },
    {
      "anonymous": false,
      "inputs": [
        {
          "indexed": true,
          "internalType": "uint256",
          "name": "fromTokenId",
          "type": "uint256"
        },
        {
          "indexed": false,
          "internalType": "uint256",
          "name": "toTokenId",
          "type": "uint256"
        },
        {
          "indexed": true,
          "internalType": "address",
          "name": "from",
          "type": "address"
        },
        {
          "indexed": true,
          "internalType": "address",
          "name": "to",
          "type": "address"
        }
      ],
      "name": "ConsecutiveTransfer",
      "type": "event"
    },
    {
      "anonymous": false,
      "inputs": [
        {
          "indexed": true,
          "internalType": "address",
          "name": "previousOwner",
          "type": "address"
        },
        {
          "indexed": true,
          "internalType": "address",
          "name": "newOwner",
          "type": "address"
        }
      ],
      "name": "OwnershipTransferred",
      "type": "event"
    },
    {
      "anonymous": false,
      "inputs": [
        {
          "indexed": true,
          "internalType": "address",
          "name": "from",
          "type": "address"
        },
        {
          "indexed": true,
          "internalType": "address",
          "name": "to",
          "type": "address"
        },
        {
          "indexed": true,
          "internalType": "uint256",
          "name": "tokenId",
          "type": "uint256"
        }
      ],
      "name": "Transfer",
      "type": "event"
    },
    {
      "inputs": [],
      "name": "MAX_PER_WALLET",
      "outputs": [
        {
          "internalType": "uint256",
          "name": "",
          "type": "uint256"
        }
      ],
      "stateMutability": "view",
      "type": "function"
    },
    {
      "inputs": [],
      "name": "MAX_SUPPLY",
      "outputs": [
        {
          "internalType": "uint256",
          "name": "",
          "type": "uint256"
        }
      ],
      "stateMutability": "view",
      "type": "function"
    },
    {
      "inputs": [],
      "name": "MINT_PRICE",
      "outputs": [
        {
          "internalType": "uint256",
          "name": "",
          "type": "uint256"
        }
      ],
      "stateMutability": "view",
      "type": "function"
    },
    {
      "inputs": [
        {
          "internalType": "address",
          "name": "to",
          "type": "address"
        },
        {
          "internalType": "uint256",
          "name": "tokenId",
          "type": "uint256"
        }
      ],
      "name": "approve",
      "outputs": [],
      "stateMutability": "payable",
      "type": "function"
    },
    {
      "inputs": [
        {
          "internalType": "address",
          "name": "owner",
          "type": "address"
        }
      ],
      "name": "balanceOf",
      "outputs": [
        {
          "internalType": "uint256",
          "name": "",
          "type": "uint256"
        }
      ],
      "stateMutability": "view",
      "type": "function"
    },
    {
      "inputs": [
        {
          "internalType": "uint256",
          "name": "tokenId",
          "type": "uint256"
        }
      ],
      "name": "getApproved",
      "outputs": [
        {
          "internalType": "address",
          "name": "",
          "type": "address"
        }
      ],
      "stateMutability": "view",
      "type": "function"
    },
    {
      "inputs": [
        {
          "internalType": "address",
          "name": "owner",
          "type": "address"
        },
        {
          "internalType": "address",
          "name": "operator",
          "type": "address"
        }
      ],
      "name": "isApprovedForAll",
      "outputs": [
        {
          "internalType": "bool",
          "name": "",
          "type": "bool"
        }
      ],
      "stateMutability": "view",
      "type": "function"
    },
    {
      "inputs": [
        {
          "internalType": "uint256",
          "name": "quantity",
          "type": "uint256"
        }
      ],
      "name": "mint",
      "outputs": [],
      "stateMutability": "payable",
      "type": "function"
    },
    {
      "inputs": [],
      "name": "mintActive",
      "outputs": [
        {
          "internalType": "bool",
          "name": "",
          "type": "bool"
        }
      ],
      "stateMutability": "view",
      "type": "function"
    },
    {
      "inputs": [],
      "name": "name",
      "outputs": [
        {
          "internalType": "string",
          "name": "",
          "type": "string"
        }
      ],
      "stateMutability": "view",
      "type": "function"
    },
    {
      "inputs": [
        {
          "internalType": "address",
          "name": "owner",
          "type": "address"
        }
      ],
      "name": "numberMinted",
      "outputs": [
        {
          "internalType": "uint256",
          "name": "",
          "type": "uint256"
        }
      ],
      "stateMutability": "view",
      "type": "function"
    },
    {
      "inputs": [],
      "name": "owner",
      "outputs": [
        {
          "internalType": "address",
          "name": "",
          "type": "address"
        }
      ],
      "stateMutability": "view",
      "type": "function"
    },
    {
      "inputs": [
        {
          "internalType": "uint256",
          "name": "tokenId",
          "type": "uint256"
        }
      ],
      "name": "ownerOf",
      "outputs": [
        {
          "internalType": "address",
          "name": "",
          "type": "address"
        }
      ],
      "stateMutability": "view",
      "type": "function"
    },
    {
      "inputs": [],
      "name": "renounceOwnership",
      "outputs": [],
      "stateMutability": "nonpayable",
      "type": "function"
    },
    {
      "inputs": [
        {
          "internalType": "address",
          "name": "from",
          "type": "address"
        },
        {
          "internalType": "address",
          "name": "to",
          "type": "address"
        },
        {
          "internalType": "uint256",
          "name": "tokenId",
          "type": "uint256"
        }
      ],
      "name": "safeTransferFrom",
      "outputs": [],
      "stateMutability": "payable",
      "type": "function"
    },
    {
      "inputs": [
        {
          "internalType": "address",
          "name": "from",
          "type": "address"
        },
        {
          "internalType": "address",
          "name": "to",
          "type": "address"
        },
        {
          "internalType": "uint256",
          "name": "tokenId",
          "type": "uint256"
        },
        {
          "internalType": "bytes",
          "name": "_data",
          "type": "bytes"
        }
      ],
      "name": "safeTransferFrom",
      "outputs": [],
      "stateMutability": "payable",
      "type": "function"
    },
    {
      "inputs": [
        {
          "internalType": "address",
          "name": "operator",
          "type": "address"
        },
        {
          "internalType": "bool",
          "name": "approved",
          "type": "bool"
        }
      ],
      "name": "setApprovalForAll",
      "outputs": [],
      "stateMutability": "nonpayable",
      "type": "function"
    },
    {
      "inputs": [
        {
          "internalType": "string",
          "name": "baseURI",
          "type": "string"
        }
      ],
      "name": "setBaseURI",
      "outputs": [],
      "stateMutability": "nonpayable",
      "type": "function"
    },
    {
      "inputs": [
        {
          "internalType": "bool",
          "name": "active",
          "type": "bool"
        }
      ],
      "name": "setMintActive",
      "outputs": [],
      "stateMutability": "nonpayable",
      "type": "function"
    },
    {
      "inputs": [
        {
          "internalType": "bytes4",
          "name": "interfaceId",
          "type": "bytes4"
        }
      ],
      "name": "supportsInterface",
      "outputs": [
        {
          "internalType": "bool",
          "name": "",
          "type": "bool"
        }
      ],
      "stateMutability": "view",
      "type": "function"
    },
    {
      "inputs": [],
      "name": "symbol",
      "outputs": [
        {
          "internalType": "string",
          "name": "",
          "type": "string"
        }
      ],
      "stateMutability": "view",
      "type": "function"
    },
    {
      "inputs": [
        {
          "internalType": "uint256",
          "name": "tokenId",
          "type": "uint256"
        }
      ],
      "name": "tokenURI",
      "outputs": [
        {
          "internalType": "string",
          "name": "",
          "type": "string"
        }
      ],
      "stateMutability": "view",
      "type": "function"
    },
    {
      "inputs": [],
      "name": "totalSupply",
      "outputs": [
        {
          "internalType": "uint256",
          "name": "result",
          "type": "uint256"
        }
      ],
      "stateMutability": "view",
      "type": "function"
    },
    {
      "inputs": [
        {
          "internalType": "address",
          "name": "from",
          "type": "address"
        },
        {
          "internalType": "address",
          "name": "to",
          "type": "address"
        },
        {
          "internalType": "uint256",
          "name": "tokenId",
          "type": "uint256"
        }
      ],
      "name": "transferFrom",
      "outputs": [],
      "stateMutability": "payable",
      "type": "function"
    },
    {
      "inputs": [
        {
          "internalType": "address",
          "name": "newOwner",
          "type": "address"
        }
      ],
      "name": "transferOwnership",
      "outputs": [],
      "stateMutability": "nonpayable",
      "type": "function"
    },
    {
      "inputs": [],
      "name": "withdraw",
      "outputs": [],
      "stateMutability": "nonpayable",
      "type": "function"
    }
  ],
  "bytecode": "0x60806040526001600b5f6101000a81548160ff021916908315150217905550348015610029575f5ffd5b506040516133a53803806133a5833981810160405281019061004b9190610403565b336040518060400160405280601081526020017f426c6f636b54656b20444a2050617373000000000000000000000000000000008152506040518060400160405280600481526020017f4254444a0000000000000000000000000000000000000000000000000000000081525081600290816100c7919061065a565b5080600390816100d7919061065a565b506100e66101bc60201b60201c565b5f819055506100f96101bc60201b60201c565b6101076101c460201b60201c565b10156101245761012363fed8210f60e01b6101eb60201b60201c565b5b50505f73ffffffffffffffffffffffffffffffffffffffff168173ffffffffffffffffffffffffffffffffffffffff1603610196575f6040517f1e4fbdf700000000000000000000000000000000000000000000000000000000815260040161018d9190610768565b60405180910390fd5b6101a5816101f360201b60201c565b5080600a90816101b5919061065a565b5050610781565b5f6001905090565b5f7fffffffffffffffffffffffffffffffffffffffffffffffffffffffffffffffff905090565b805f5260045ffd5b5f60095f9054906101000a900473ffffffffffffffffffffffffffffffffffffffff1690508160095f6101000a81548173ffffffffffffffffffffffffffffffffffffffff021916908373ffffffffffffffffffffffffffffffffffffffff1602179055508173ffffffffffffffffffffffffffffffffffffffff168173ffffffffffffffffffffffffffffffffffffffff167f8be0079c531659141344cd1fd0a4f28419497f9722a3daafe3b4186f6b6457e060405160405180910390a35050565b5f604051905090565b5f5ffd5b5f5ffd5b5f5ffd5b5f5ffd5b5f601f19601f8301169050919050565b7f4e487b71000000000000000000000000000000000000000000000000000000005f52604160045260245ffd5b610315826102cf565b810181811067ffffffffffffffff82111715610334576103336102df565b5b80604052505050565b5f6103466102b6565b9050610352828261030c565b919050565b5f67ffffffffffffffff821115610371576103706102df565b5b61037a826102cf565b9050602081019050919050565b8281835e5f83830152505050565b5f6103a76103a284610357565b61033d565b9050828152602081018484840111156103c3576103c26102cb565b5b6103ce848285610387565b509392505050565b5f82601f8301126103ea576103e96102c7565b5b81516103fa848260208601610395565b91505092915050565b5f60208284031215610418576104176102bf565b5b5f82015167ffffffffffffffff811115610435576104346102c3565b5b610441848285016103d6565b91505092915050565b5f81519050919050565b7f4e487b71000000000000000000000000000000000000000000000000000000005f52602260045260245ffd5b5f600282049050600182168061049857607f821691505b6020821081036104ab576104aa610454565b5b50919050565b5f819050815f5260205f209050919050565b5f6020601f8301049050919050565b5f82821b905092915050565b5f6008830261050d7fffffffffffffffffffffffffffffffffffffffffffffffffffffffffffffffff826104d2565b61051786836104d2565b95508019841693508086168417925050509392505050565b5f819050919050565b5f819050919050565b5f61055b6105566105518461052f565b610538565b61052f565b9050919050565b5f819050919050565b61057483610541565b61058861058082610562565b8484546104de565b825550505050565b5f5f905090565b61059f610590565b6105aa81848461056b565b505050565b5b818110156105cd576105c25f82610597565b6001810190506105b0565b5050565b601f821115610612576105e3816104b1565b6105ec846104c3565b810160208510156105fb578190505b61060f610607856104c3565b8301826105af565b50505b505050565b5f82821c905092915050565b5f6106325f1984600802610617565b1980831691505092915050565b5f61064a8383610623565b9150826002028217905092915050565b6106638261044a565b67ffffffffffffffff81111561067c5761067b6102df565b5b6106868254610481565b6106918282856105d1565b5f60209050601f8311600181146106c2575f84156106b0578287015190505b6106ba858261063f565b865550610721565b601f1984166106d0866104b1565b5f5b828110156106f7578489015182556001820191506020850194506020810190506106d2565b868310156107145784890151610710601f891682610623565b8355505b6001600288020188555050505b505050505050565b5f73ffffffffffffffffffffffffffffffffffffffff82169050919050565b5f61075282610729565b9050919050565b61076281610748565b82525050565b5f60208201905061077b5f830184610759565b92915050565b612c178061078e5f395ff3fe608060405260043610610180575f3560e01c806370a08231116100d0578063b88d4fde11610089578063dc33e68111610063578063dc33e68114610508578063e985e9c514610544578063ee1cc94414610580578063f2fde38b146105a857610180565b8063b88d4fde14610486578063c002d23d146104a2578063c87b56dd146104cc57610180565b806370a082311461039c578063715018a6146103d85780638da5cb5b146103ee57806395d89b4114610418578063a0712d6814610442578063a22cb4651461045e57610180565b806323b872dd1161013d5780633ccfd60b116101175780633ccfd60b1461030657806342842e0e1461031c57806355f804b3146103385780636352211e1461036057610180565b806323b872dd1461029657806325fd90f3146102b257806332cb6b0c146102dc57610180565b806301ffc9a71461018457806306fdde03146101c0578063081812fc146101ea578063095ea7b3146102265780630f2cdd6c1461024257806318160ddd1461026c575b5f5ffd5b34801561018f575f5ffd5b506101aa60048036038101906101a59190611ddf565b6105d0565b6040516101b79190611e24565b60405180910390f35b3480156101cb575f5ffd5b506101d4610661565b6040516101e19190611ead565b60405180910390f35b3480156101f5575f5ffd5b50610210600480360381019061020b9190611f00565b6106f1565b60405161021d9190611f6a565b60405180910390f35b610240600480360381019061023b9190611fad565b61074a565b005b34801561024d575f5ffd5b5061025661075a565b6040516102639190611ffa565b60405180910390f35b348015610277575f5ffd5b5061028061075f565b60405161028d9190611ffa565b60405180910390f35b6102b060048036038101906102ab9190612013565b6107aa565b005b3480156102bd575f5ffd5b506102c6610a55565b6040516102d39190611e24565b60405180910390f35b3480156102e7575f5ffd5b506102f0610a67565b6040516102fd9190611ffa565b60405180910390f35b348015610311575f5ffd5b5061031a610a6d565b005b61033660048036038101906103319190612013565b610b09565b005b348015610343575f5ffd5b5061035e600480360381019061035991906120c4565b610b28565b005b34801561036b575f5ffd5b5061038660048036038101906103819190611f00565b610b46565b6040516103939190611f6a565b60405180910390f35b3480156103a7575f5ffd5b506103c260048036038101906103bd919061210f565b610b57565b6040516103cf9190611ffa565b60405180910390f35b3480156103e3575f5ffd5b506103ec610beb565b005b3480156103f9575f5ffd5b50610402610bfe565b60405161040f9190611f6a565b60405180910390f35b348015610423575f5ffd5b5061042c610c26565b6040516104399190611ead565b60405180910390f35b61045c60048036038101906104579190611f00565b610cb6565b005b348015610469575f5ffd5b50610484600480360381019061047f9190612164565b610e6f565b005b6104a0600480360381019061049b91906122ca565b610f75565b005b3480156104ad575f5ffd5b506104b6610fc6565b6040516104c39190611ffa565b60405180910390f35b3480156104d7575f5ffd5b506104f260048036038101906104ed9190611f00565b610fd1565b6040516104ff9190611ead565b60405180910390f35b348015610513575f5ffd5b5061052e6004803603810190610529919061210f565b611075565b60405161053b9190611ffa565b60405180910390f35b34801561054f575f5ffd5b5061056a6004803603810190610565919061234a565b611086565b6040516105779190611e24565b60405180910390f35b34801561058b575f5ffd5b506105a660048036038101906105a19190612388565b611114565b005b3480156105b3575f5ffd5b506105ce60048036038101906105c9919061210f565b611138565b005b5f6301ffc9a760e01b827bffffffffffffffffffffffffffffffffffffffffffffffffffffffff1916148061062a57506380ac58cd60e01b827bffffffffffffffffffffffffffffffffffffffffffffffffffffffff1916145b8061065a5750635b5e139f60e01b827bffffffffffffffffffffffffffffffffffffffffffffffffffffffff1916145b9050919050565b606060028054610670906123e0565b80601f016020809104026020016040519081016040528092919081815260200182805461069c906123e0565b80156106e75780601f106106be576101008083540402835291602001916106e7565b820191905f5260205f20905b8154815290600101906020018083116106ca57829003601f168201915b5050505050905090565b5f6106fb826111bc565b6107105761070f63cf4700e460e01b61125f565b5b60065f8381526020019081526020015f205f015f9054906101000a900473ffffffffffffffffffffffffffffffffffffffff169050919050565b61075682826001611267565b5050565b600581565b5f610768611391565b6001545f54030390507fffffffffffffffffffffffffffffffffffffffffffffffffffffffffffffffff61079a611399565b146107a757600854810190505b90565b5f6107b4826113c0565b905073ffffffffffffffffffffffffffffffffffffffff8473ffffffffffffffffffffffffffffffffffffffff161693508373ffffffffffffffffffffffffffffffffffffffff168173ffffffffffffffffffffffffffffffffffffffff16146108295761082863a114810060e01b61125f565b5b5f5f610834846114cf565b9150915061084a81876108456114f2565b6114f9565b6108755761085f8661085a6114f2565b611086565b610874576108736359c896be60e01b61125f565b5b5b610882868686600161153c565b801561088c575f82555b60055f8773ffffffffffffffffffffffffffffffffffffffff1673ffffffffffffffffffffffffffffffffffffffff1681526020019081526020015f205f8154600190039190508190555060055f8673ffffffffffffffffffffffffffffffffffffffff1673ffffffffffffffffffffffffffffffffffffffff1681526020019081526020015f205f81546001019190508190555061095485610930888887611542565b7c020000000000000000000000000000000000000000000000000000000017611569565b60045f8681526020019081526020015f20819055505f7c02000000000000000000000000000000000000000000000000000000008416036109d0575f6001850190505f60045f8381526020019081526020015f2054036109ce575f5481146109cd578360045f8381526020019081526020015f20819055505b5b505b5f73ffffffffffffffffffffffffffffffffffffffff8673ffffffffffffffffffffffffffffffffffffffff161690508481887fddf252ad1be2c89b69c2b068fc378daa952ba7f163c4a11628f55a4df523b3ef5f5fa45f8103610a3f57610a3e63ea553b3460e01b61125f565b5b610a4c8787876001611593565b50505050505050565b600b5f9054906101000a900460ff1681565b6103e881565b610a75611599565b5f4790505f8111610abb576040517f08c379a0000000000000000000000000000000000000000000000000000000008152600401610ab29061245a565b60405180910390fd5b610ac3610bfe565b73ffffffffffffffffffffffffffffffffffffffff166108fc8290811502906040515f60405180830381858888f19350505050158015610b05573d5f5f3e3d5ffd5b5050565b610b2383838360405180602001604052805f815250610f75565b505050565b610b30611599565b8181600a9182610b41929190612622565b505050565b5f610b50826113c0565b9050919050565b5f5f73ffffffffffffffffffffffffffffffffffffffff168273ffffffffffffffffffffffffffffffffffffffff1603610b9c57610b9b638f4eb60460e01b61125f565b5b67ffffffffffffffff60055f8473ffffffffffffffffffffffffffffffffffffffff1673ffffffffffffffffffffffffffffffffffffffff1681526020019081526020015f2054169050919050565b610bf3611599565b610bfc5f611620565b565b5f60095f9054906101000a900473ffffffffffffffffffffffffffffffffffffffff16905090565b606060038054610c35906123e0565b80601f0160208091040260200160405190810160405280929190818152602001828054610c61906123e0565b8015610cac5780601f10610c8357610100808354040283529160200191610cac565b820191905f5260205f20905b815481529060010190602001808311610c8f57829003601f168201915b5050505050905090565b600b5f9054906101000a900460ff16610d04576040517f08c379a0000000000000000000000000000000000000000000000000000000008152600401610cfb90612739565b60405180910390fd5b5f81118015610d14575060058111155b610d53576040517f08c379a0000000000000000000000000000000000000000000000000000000008152600401610d4a906127a1565b60405180910390fd5b6103e881610d5f61075f565b610d6991906127ec565b1115610daa576040517f08c379a0000000000000000000000000000000000000000000000000000000008152600401610da190612869565b60405180910390fd5b600581610db6336116e3565b610dc091906127ec565b1115610e01576040517f08c379a0000000000000000000000000000000000000000000000000000000008152600401610df8906128d1565b60405180910390fd5b80662386f26fc10000610e1491906128ef565b341015610e56576040517f08c379a0000000000000000000000000000000000000000000000000000000008152600401610e4d9061297a565b60405180910390fd5b5f610e5f611737565b9050610e6b338361173f565b5050565b8060075f610e7b6114f2565b73ffffffffffffffffffffffffffffffffffffffff1673ffffffffffffffffffffffffffffffffffffffff1681526020019081526020015f205f8473ffffffffffffffffffffffffffffffffffffffff1673ffffffffffffffffffffffffffffffffffffffff1681526020019081526020015f205f6101000a81548160ff0219169083151502179055508173ffffffffffffffffffffffffffffffffffffffff16610f246114f2565b73ffffffffffffffffffffffffffffffffffffffff167f17307eab39ab6107e8899845ad3d59bd9653f200f220920489ca2b5937696c3183604051610f699190611e24565b60405180910390a35050565b610f808484846107aa565b5f8373ffffffffffffffffffffffffffffffffffffffff163b14610fc057610faa8484848461175c565b610fbf57610fbe63d1a57ed660e01b61125f565b5b5b50505050565b662386f26fc1000081565b6060610fdc826111bc565b61101b576040517f08c379a0000000000000000000000000000000000000000000000000000000008152600401611012906129e2565b60405180910390fd5b5f611024611886565b90505f8151116110425760405180602001604052805f81525061106d565b8061104c84611916565b60405160200161105d929190612a84565b6040516020818303038152906040525b915050919050565b5f61107f826116e3565b9050919050565b5f60075f8473ffffffffffffffffffffffffffffffffffffffff1673ffffffffffffffffffffffffffffffffffffffff1681526020019081526020015f205f8373ffffffffffffffffffffffffffffffffffffffff1673ffffffffffffffffffffffffffffffffffffffff1681526020019081526020015f205f9054906101000a900460ff16905092915050565b61111c611599565b80600b5f6101000a81548160ff02191690831515021790555050565b611140611599565b5f73ffffffffffffffffffffffffffffffffffffffff168173ffffffffffffffffffffffffffffffffffffffff16036111b0575f6040517f1e4fbdf70000000000000000000000000000000000000000000000000000000081526004016111a79190611f6a565b60405180910390fd5b6111b981611620565b50565b5f816111c6611391565b11611259576111d3611399565b8211156111fb576111f460045f8481526020019081526020015f20546119e0565b905061125a565b5f54821015611258575f5b5f60045f8581526020019081526020015f205491508103611232578261122b90612ab2565b9250611206565b5f7c01000000000000000000000000000000000000000000000000000000008216149150505b5b5b919050565b805f5260045ffd5b5f61127183610b46565b90508180156112b357508073ffffffffffffffffffffffffffffffffffffffff1661129a6114f2565b73ffffffffffffffffffffffffffffffffffffffff1614155b156112df576112c9816112c46114f2565b611086565b6112de576112dd63cfb3b94260e01b61125f565b5b5b8360065f8581526020019081526020015f205f015f6101000a81548173ffffffffffffffffffffffffffffffffffffffff021916908373ffffffffffffffffffffffffffffffffffffffff160217905550828473ffffffffffffffffffffffffffffffffffffffff168273ffffffffffffffffffffffffffffffffffffffff167f8c5be1e5ebec7d5bd14f71427d1e84f3dd0314c0f7b2291e5b200ac8c7c3b92560405160405180910390a450505050565b5f6001905090565b5f7fffffffffffffffffffffffffffffffffffffffffffffffffffffffffffffffff905090565b5f816113ca611391565b116114b95760045f8381526020019081526020015f205490506113eb611399565b821115611410576113fb816119e0565b6114ca5761140f63df2d9b4260e01b61125f565b5b5f8103611491575f5482106114305761142f63df2d9b4260e01b61125f565b5b5b60045f836001900393508381526020019081526020015f205490505f81031561148c575f7c0100000000000000000000000000000000000000000000000000000000821603156114ca5761148b63df2d9b4260e01b61125f565b5b611431565b5f7c0100000000000000000000000000000000000000000000000000000000821603156114ca575b6114c963df2d9b4260e01b61125f565b5b919050565b5f5f5f60065f8581526020019081526020015f2090508092508254915050915091565b5f33905090565b5f73ffffffffffffffffffffffffffffffffffffffff8316925073ffffffffffffffffffffffffffffffffffffffff821691508382148383141790509392505050565b50505050565b5f5f60e883901c905060e8611558868684611a20565b62ffffff16901b9150509392505050565b5f73ffffffffffffffffffffffffffffffffffffffff83169250814260a01b178317905092915050565b50505050565b6115a1611a28565b73ffffffffffffffffffffffffffffffffffffffff166115bf610bfe565b73ffffffffffffffffffffffffffffffffffffffff161461161e576115e2611a28565b6040517f118cdaa70000000000000000000000000000000000000000000000000000000081526004016116159190611f6a565b60405180910390fd5b565b5f60095f9054906101000a900473ffffffffffffffffffffffffffffffffffffffff1690508160095f6101000a81548173ffffffffffffffffffffffffffffffffffffffff021916908373ffffffffffffffffffffffffffffffffffffffff1602179055508173ffffffffffffffffffffffffffffffffffffffff168173ffffffffffffffffffffffffffffffffffffffff167f8be0079c531659141344cd1fd0a4f28419497f9722a3daafe3b4186f6b6457e060405160405180910390a35050565b5f67ffffffffffffffff604060055f8573ffffffffffffffffffffffffffffffffffffffff1673ffffffffffffffffffffffffffffffffffffffff1681526020019081526020015f2054901c169050919050565b5f5f54905090565b611758828260405180602001604052805f815250611a2f565b5050565b5f8373ffffffffffffffffffffffffffffffffffffffff1663150b7a026117816114f2565b8786866040518563ffffffff1660e01b81526004016117a39493929190612b2b565b6020604051808303815f875af19250505080156117de57506040513d601f19601f820116820180604052508101906117db9190612b89565b60015b611833573d805f811461180c576040519150601f19603f3d011682016040523d82523d5f602084013e611811565b606091505b505f81510361182b5761182a63d1a57ed660e01b61125f565b5b805181602001fd5b63150b7a0260e01b7bffffffffffffffffffffffffffffffffffffffffffffffffffffffff1916817bffffffffffffffffffffffffffffffffffffffffffffffffffffffff191614915050949350505050565b6060600a8054611895906123e0565b80601f01602080910402602001604051908101604052809291908181526020018280546118c1906123e0565b801561190c5780601f106118e35761010080835404028352916020019161190c565b820191905f5260205f20905b8154815290600101906020018083116118ef57829003601f168201915b5050505050905090565b60605f600161192484611aa5565b0190505f8167ffffffffffffffff811115611942576119416121a6565b5b6040519080825280601f01601f1916602001820160405280156119745781602001600182028036833780820191505090505b5090505f82602083010190505b6001156119d5578080600190039150507f3031323334353637383961626364656600000000000000000000000000000000600a86061a8153600a85816119ca576119c9612bb4565b5b0494505f8503611981575b819350505050919050565b5f7c0100000000000000000000000000000000000000000000000000000000821673ffffffffffffffffffffffffffffffffffffffff8316119050919050565b5f9392505050565b5f33905090565b611a398383611bf6565b5f8373ffffffffffffffffffffffffffffffffffffffff163b14611aa0575f5f5490505f83820390505b611a755f86838060010194508661175c565b611a8a57611a8963d1a57ed660e01b61125f565b5b818110611a6357815f5414611a9d575f5ffd5b50505b505050565b5f5f5f90507a184f03e93ff9f4daa797ed6e38ed64bf6a1f0100000000000000008310611b01577a184f03e93ff9f4daa797ed6e38ed64bf6a1f0100000000000000008381611af757611af6612bb4565b5b0492506040810190505b6d04ee2d6d415b85acef81000000008310611b3e576d04ee2d6d415b85acef81000000008381611b3457611b33612bb4565b5b0492506020810190505b662386f26fc100008310611b6d57662386f26fc100008381611b6357611b62612bb4565b5b0492506010810190505b6305f5e1008310611b96576305f5e1008381611b8c57611b8b612bb4565b5b0492506008810190505b6127108310611bbb576127108381611bb157611bb0612bb4565b5b0492506004810190505b60648310611bde5760648381611bd457611bd3612bb4565b5b0492506002810190505b600a8310611bed576001810190505b80915050919050565b5f5f5490505f8203611c1357611c1263b562e8dd60e01b61125f565b5b611c1f5f84838561153c565b611c3d83611c2e5f865f611542565b611c3785611d6a565b17611569565b60045f8381526020019081526020015f2081905550600160406001901b17820260055f8573ffffffffffffffffffffffffffffffffffffffff1673ffffffffffffffffffffffffffffffffffffffff1681526020019081526020015f205f82825401925050819055505f73ffffffffffffffffffffffffffffffffffffffff8473ffffffffffffffffffffffffffffffffffffffff161690505f8103611cee57611ced632e07630060e01b61125f565b5b5f83830190505f839050611d00611399565b600183031115611d1b57611d1a6381647e3a60e01b61125f565b5b5b80835f7fddf252ad1be2c89b69c2b068fc378daa952ba7f163c4a11628f55a4df523b3ef5f5fa4818160010191508103611d1c57815f81905550505050611d655f848385611593565b505050565b5f6001821460e11b9050919050565b5f604051905090565b5f5ffd5b5f5ffd5b5f7fffffffff0000000000000000000000000000000000000000000000000000000082169050919050565b611dbe81611d8a565b8114611dc8575f5ffd5b50565b5f81359050611dd981611db5565b92915050565b5f60208284031215611df457611df3611d82565b5b5f611e0184828501611dcb565b91505092915050565b5f8115159050919050565b611e1e81611e0a565b82525050565b5f602082019050611e375f830184611e15565b92915050565b5f81519050919050565b5f82825260208201905092915050565b8281835e5f83830152505050565b5f601f19601f8301169050919050565b5f611e7f82611e3d565b611e898185611e47565b9350611e99818560208601611e57565b611ea281611e65565b840191505092915050565b5f6020820190508181035f830152611ec58184611e75565b905092915050565b5f819050919050565b611edf81611ecd565b8114611ee9575f5ffd5b50565b5f81359050611efa81611ed6565b92915050565b5f60208284031215611f1557611f14611d82565b5b5f611f2284828501611eec565b91505092915050565b5f73ffffffffffffffffffffffffffffffffffffffff82169050919050565b5f611f5482611f2b565b9050919050565b611f6481611f4a565b82525050565b5f602082019050611f7d5f830184611f5b565b92915050565b611f8c81611f4a565b8114611f96575f5ffd5b50565b5f81359050611fa781611f83565b92915050565b5f5f60408385031215611fc357611fc2611d82565b5b5f611fd085828601611f99565b9250506020611fe185828601611eec565b9150509250929050565b611ff481611ecd565b82525050565b5f60208201905061200d5f830184611feb565b92915050565b5f5f5f6060848603121561202a57612029611d82565b5b5f61203786828701611f99565b935050602061204886828701611f99565b925050604061205986828701611eec565b9150509250925092565b5f5ffd5b5f5ffd5b5f5ffd5b5f5f83601f84011261208457612083612063565b5b8235905067ffffffffffffffff8111156120a1576120a0612067565b5b6020830191508360018202830111156120bd576120bc61206b565b5b9250929050565b5f5f602083850312156120da576120d9611d82565b5b5f83013567ffffffffffffffff8111156120f7576120f6611d86565b5b6121038582860161206f565b92509250509250929050565b5f6020828403121561212457612123611d82565b5b5f61213184828501611f99565b91505092915050565b61214381611e0a565b811461214d575f5ffd5b50565b5f8135905061215e8161213a565b92915050565b5f5f6040838503121561217a57612179611d82565b5b5f61218785828601611f99565b925050602061219885828601612150565b9150509250929050565b5f5ffd5b7f4e487b71000000000000000000000000000000000000000000000000000000005f52604160045260245ffd5b6121dc82611e65565b810181811067ffffffffffffffff821117156121fb576121fa6121a6565b5b80604052505050565b5f61220d611d79565b905061221982826121d3565b919050565b5f67ffffffffffffffff821115612238576122376121a6565b5b61224182611e65565b9050602081019050919050565b828183375f83830152505050565b5f61226e6122698461221e565b612204565b90508281526020810184848401111561228a576122896121a2565b5b61229584828561224e565b509392505050565b5f82601f8301126122b1576122b0612063565b5b81356122c184826020860161225c565b91505092915050565b5f5f5f5f608085870312156122e2576122e1611d82565b5b5f6122ef87828801611f99565b945050602061230087828801611f99565b935050604061231187828801611eec565b925050606085013567ffffffffffffffff81111561233257612331611d86565b5b61233e8782880161229d565b91505092959194509250565b5f5f604083850312156123605761235f611d82565b5b5f61236d85828601611f99565b925050602061237e85828601611f99565b9150509250929050565b5f6020828403121561239d5761239c611d82565b5b5f6123aa84828501612150565b91505092915050565b7f4e487b71000000000000000000000000000000000000000000000000000000005f52602260045260245ffd5b5f60028204905060018216806123f757607f821691505b60208210810361240a576124096123b3565b5b50919050565b7f4e6f2066756e647320746f2077697468647261770000000000000000000000005f82015250565b5f612444601483611e47565b915061244f82612410565b602082019050919050565b5f6020820190508181035f83015261247181612438565b9050919050565b5f82905092915050565b5f819050815f5260205f209050919050565b5f6020601f8301049050919050565b5f82821b905092915050565b5f600883026124de7fffffffffffffffffffffffffffffffffffffffffffffffffffffffffffffffff826124a3565b6124e886836124a3565b95508019841693508086168417925050509392505050565b5f819050919050565b5f61252361251e61251984611ecd565b612500565b611ecd565b9050919050565b5f819050919050565b61253c83612509565b6125506125488261252a565b8484546124af565b825550505050565b5f5f905090565b612567612558565b612572818484612533565b505050565b5b818110156125955761258a5f8261255f565b600181019050612578565b5050565b601f8211156125da576125ab81612482565b6125b484612494565b810160208510156125c3578190505b6125d76125cf85612494565b830182612577565b50505b505050565b5f82821c905092915050565b5f6125fa5f19846008026125df565b1980831691505092915050565b5f61261283836125eb565b9150826002028217905092915050565b61262c8383612478565b67ffffffffffffffff811115612645576126446121a6565b5b61264f82546123e0565b61265a828285612599565b5f601f831160018114612687575f8415612675578287013590505b61267f8582612607565b8655506126e6565b601f19841661269586612482565b5f5b828110156126bc57848901358255600182019150602085019450602081019050612697565b868310156126d957848901356126d5601f8916826125eb565b8355505b6001600288020188555050505b50505050505050565b7f4d696e74696e67206973207061757365640000000000000000000000000000005f82015250565b5f612723601183611e47565b915061272e826126ef565b602082019050919050565b5f6020820190508181035f83015261275081612717565b9050919050565b7f496e76616c6964207175616e74697479000000000000000000000000000000005f82015250565b5f61278b601083611e47565b915061279682612757565b602082019050919050565b5f6020820190508181035f8301526127b88161277f565b9050919050565b7f4e487b71000000000000000000000000000000000000000000000000000000005f52601160045260245ffd5b5f6127f682611ecd565b915061280183611ecd565b9250828201905080821115612819576128186127bf565b5b92915050565b7f45786365656473206d617820737570706c7900000000000000000000000000005f82015250565b5f612853601283611e47565b915061285e8261281f565b602082019050919050565b5f6020820190508181035f83015261288081612847565b9050919050565b7f457863656564732077616c6c6574206c696d69740000000000000000000000005f82015250565b5f6128bb601483611e47565b91506128c682612887565b602082019050919050565b5f6020820190508181035f8301526128e8816128af565b9050919050565b5f6128f982611ecd565b915061290483611ecd565b925082820261291281611ecd565b91508282048414831517612929576129286127bf565b5b5092915050565b7f4e6f7420656e6f756768204554480000000000000000000000000000000000005f82015250565b5f612964600e83611e47565b915061296f82612930565b602082019050919050565b5f6020820190508181035f83015261299181612958565b9050919050565b7f546f6b656e20646f6573206e6f742065786973740000000000000000000000005f82015250565b5f6129cc601483611e47565b91506129d782612998565b602082019050919050565b5f6020820190508181035f8301526129f9816129c0565b9050919050565b5f81905092915050565b5f612a1482611e3d565b612a1e8185612a00565b9350612a2e818560208601611e57565b80840191505092915050565b7f2e6a736f6e0000000000000000000000000000000000000000000000000000005f82015250565b5f612a6e600583612a00565b9150612a7982612a3a565b600582019050919050565b5f612a8f8285612a0a565b9150612a9b8284612a0a565b9150612aa682612a62565b91508190509392505050565b5f612abc82611ecd565b91505f8203612ace57612acd6127bf565b5b600182039050919050565b5f81519050919050565b5f82825260208201905092915050565b5f612afd82612ad9565b612b078185612ae3565b9350612b17818560208601611e57565b612b2081611e65565b840191505092915050565b5f608082019050612b3e5f830187611f5b565b612b4b6020830186611f5b565b612b586040830185611feb565b8181036060830152612b6a8184612af3565b905095945050505050565b5f81519050612b8381611db5565b92915050565b5f60208284031215612b9e57612b9d611d82565b5b5f612bab84828501612b75565b91505092915050565b7f4e487b71000000000000000000000000000000000000000000000000000000005f52601260045260245ffdfea26469706673582212208d1342bf19d010cbd44551655aff674410600ba3438e4634b6f2cb5d4720dfe364736f6c634300081c0033",
  "linkReferences": {},
  "deployedLinkReferences": {},
  "immutableReferences": {},
  "inputSourceName": "project/contracts/DJPass.sol",
  "buildInfoId": "solc-0_8_28-40ca930f59d970617c6693d014fb6a1791973146"
}