{
  "_format": "hh-sol-artifact-1",
  "contractName": "DJPass",
  "sourceName": "contracts/DJPass.sol",
  "abi": [
    {
      "inputs": [
        {
          "internalType": "string",
          "name": "baseURI",
          "type": "string"
        }
      ],
      "stateMutability": "nonpayable",
      "type": "constructor"
    },
    {
      "inputs": [],
      "name": "ApprovalCallerNotOwnerNorApproved",
      "type": "error"
    },
    {
      "inputs": [],
      "name": "ApprovalQueryForNonexistentToken",
      "type": "error"
    },
    {
      "inputs": [],
      "name": "BalanceQueryForZeroAddress",
      "type": "error"
    },
    {
      "inputs": [],
      "name": "MintERC2309QuantityExceedsLimit",
      "type": "error"
    },
    {
      "inputs": [],
      "name": "MintToZeroAddress",
      "type": "error"
    },
    {
      "inputs": [],
      "name": "MintZeroQuantity",
      "type": "error"
    },
    {
      "inputs": [],
      "name": "NotCompatibleWithSpotMints",
      "type": "error"
    },
    {
      "inputs": [
        {
          "internalType": "address",
          "name": "owner",
          "type": "address"
        }
      ],
      "name": "OwnableInvalidOwner",
      "type": "error"
    },
    {
      "inputs": [
        {
          "internalType": "address",
          "name": "account",
          "type": "address"
        }
      ],
      "name": "OwnableUnauthorizedAccount",
      "type": "error"
    },
    {
      "inputs": [],
      "name": "OwnerQueryForNonexistentToken",
      "type": "error"
    },
    {
      "inputs": [],
      "name": "OwnershipNotInitializedForExtraData",
      "type": "error"
    },
    {
      "inputs": [],
      "name": "SequentialMintExceedsLimit",
      "type": "error"
    },
    {
      "inputs": [],
      "name": "SequentialUpToTooSmall",
      "type": "error"
    },
    {
      "inputs": [],
      "name": "SpotMintTokenIdTooSmall",
      "type": "error"
    },
    {
      "inputs": [],
      "name": "TokenAlreadyExists",
      "type": "error"
    },
    {
      "inputs": [],
      "name": "TransferCallerNotOwnerNorApproved",
      "type": "error"
    },
    {
      "inputs": [],
      "name": "TransferFromIncorrectOwner",
      "type": "error"
    },
    {
      "inputs": [],
      "name": "TransferToNonERC721ReceiverImplementer",
      "type": "error"
    },
    {
      "inputs": [],
      "name": "TransferToZeroAddress",
      "type": "error"
    },
    {
      "inputs": [],
      "name": "URIQueryForNonexistentToken",
      "type": "error"
    },
    {
      "anonymous": false,
      "inputs": [
        {
          "indexed": true,
          "internalType": "address",
          "name": "owner",
          "type": "address"
        },
        {
          "indexed": true,
          "internalType": "address",
          "name": "approved",
          "type": "address"
        },
        {
          "indexed": true,
          "internalType": "uint256",
          "name": "tokenId",
          "type": "uint256"
        }
      ],
      "name": "Approval",
      "type": "event"
    },
    {
      "anonymous": false,
      "inputs": [
        {
          "indexed": true,
          "internalType": "address",
          "name": "owner",
          "type": "address"
        },
        {
          "indexed": true,
          "internalType": "address",
          "name": "operator",
          "type": "address"
        },
        {
          "indexed": false,
          "internalType": "bool",
          "name": "approved",
          "type": "bool"
        }
      ],
      "name": "ApprovalForAll",
      "type": "event"
    },
    {
      "anonymous": false,
      "inputs": [
        {
          "indexed": true,
          "internalType": "uint256",
          "name": "fromTokenId",
          "type": "uint256"
        },
        {
          "indexed": false,
          "internalType": "uint256",
          "name": "toTokenId",
          "type": "uint256"
        },
        {
          "indexed": true,
          "internalType": "address",
          "name": "from",
          "type": "address"
        },
        {
          "indexed": true,
          "internalType": "address",
          "name": "to",
          "type": "address"
        }
      ],
      "name": "ConsecutiveTransfer",
      "type": "event"
    },
    {
      "anonymous": false,
      "inputs": [
        {
          "indexed": true,
          "internalType": "address",
          "name": "previousOwner",
          "type": "address"
        },
        {
          "indexed": true,
          "internalType": "address",
          "name": "newOwner",
          "type": "address"
        }
      ],
      "name": "OwnershipTransferred",
      "type": "event"
    },
    {
      "anonymous": false,
      "inputs": [
        {
          "indexed": true,
          "internalType": "address",
          "name": "from",
          "type": "address"
        },
        {
          "indexed": true,
          "internalType": "address",
          "name": "to",
          "type": "address"
        },
        {
          "indexed": true,
          "internalType": "uint256",
          "name": "tokenId",
          "type": "uint256"
        }
      ],
      "name": "Transfer",
      "type": "event"
    },
    {
      "inputs": [],
      "name": "MAX_PER_WALLET",
      "outputs": [
        {
          "internalType": "uint256",
          "name": "",
          "type": "uint256"
        }
      ],
      "stateMutability": "view",
      "type": "function"
    },
    {
      "inputs": [],
      "name": "MAX_SUPPLY",
      "outputs": [
        {
          "internalType": "uint256",
          "name": "",
          "type": "uint256"
        }
      ],
      "stateMutability": "view",
      "type": "function"
    },
    {
      "inputs": [],
      "name": "MINT_PRICE",
      "outputs": [
        {
          "internalType": "uint256",
          "name": "",
          "type": "uint256"
        }
      ],
      "stateMutability": "view",
      "type": "function"
    },
    {
      "inputs": [
        {
          "internalType": "address",
          "name": "to",
          "type": "address"
        },
        {
          "internalType": "uint256",
          "name": "tokenId",
          "type": "uint256"
        }
      ],
      "name": "approve",
      "outputs": [],
      "stateMutability": "payable",
      "type": "function"
    },
    {
      "inputs": [
        {
          "internalType": "address",
          "name": "owner",
          "type": "address"
        }
      ],
      "name": "balanceOf",
      "outputs": [
        {
          "internalType": "uint256",
          "name": "",
          "type": "uint256"
        }
      ],
      "stateMutability": "view",
      "type": "function"
    },
    {
      "inputs": [
        {
          "internalType": "uint256",
          "name": "tokenId",
          "type": "uint256"
        }
      ],
      "name": "getApproved",
      "outputs": [
        {
          "internalType": "address",
          "name": "",
          "type": "address"
        }
      ],
      "stateMutability": "view",
      "type": "function"
    },
    {
      "inputs": [
        {
          "internalType": "address",
          "name": "owner",
          "type": "address"
        },
        {
          "internalType": "address",
          "name": "operator",
          "type": "address"
        }
      ],
      "name": "isApprovedForAll",
      "outputs": [
        {
          "internalType": "bool",
          "name": "",
          "type": "bool"
        }
      ],
      "stateMutability": "view",
      "type": "function"
    },
    {
      "inputs": [
        {
          "internalType": "uint256",
          "name": "quantity",
          "type": "uint256"
        }
      ],
      "name": "mint",
      "outputs": [],
      "stateMutability": "payable",
      "type": "function"
    },
    {
      "inputs": [],
      "name": "mintActive",
      "outputs": [
        {
          "internalType": "bool",
          "name": "",
          "type": "bool"
        }
      ],
      "stateMutability": "view",
      "type": "function"
    },
    {
      "inputs": [],
      "name": "name",
      "outputs": [
        {
          "internalType": "string",
          "name": "",
          "type": "string"
        }
      ],
      "stateMutability": "view",
      "type": "function"
    },
    {
      "inputs": [
        {
          "internalType": "address",
          "name": "owner",
          "type": "address"
        }
      ],
      "name": "numberMinted",
      "outputs": [
        {
          "internalType": "uint256",
          "name": "",
          "type": "uint256"
        }
      ],
      "stateMutability": "view",
      "type": "function"
    },
    {
      "inputs": [],
      "name": "owner",
      "outputs": [
        {
          "internalType": "address",
          "name": "",
          "type": "address"
        }
      ],
      "stateMutability": "view",
      "type": "function"
    },
    {
      "inputs": [
        {
          "internalType": "uint256",
          "name": "tokenId",
          "type": "uint256"
        }
      ],
      "name": "ownerOf",
      "outputs": [
        {
          "internalType": "address",
          "name": "",
          "type": "address"
        }
      ],
      "stateMutability": "view",
      "type": "function"
    },
    {
      "inputs": [],
      "name": "renounceOwnership",
      "outputs": [],
      "stateMutability": "nonpayable",
      "type": "function"
    },
    {
      "inputs": [
        {
          "internalType": "address",
          "name": "from",
          "type": "address"
        },
        {
          "internalType": "address",
          "name": "to",
          "type": "address"
        },
        {
          "internalType": "uint256",
          "name": "tokenId",
          "type": "uint256"
        }
      ],
      "name": "safeTransferFrom",
      "outputs": [],
      "stateMutability": "payable",
      "type": "function"
    },
    {
      "inputs": [
        {
          "internalType": "address",
          "name": "from",
          "type": "address"
        },
        {
          "internalType": "address",
          "name": "to",
          "type": "address"
        },
        {
          "internalType": "uint256",
          "name": "tokenId",
          "type": "uint256"
        },
        {
          "internalType": "bytes",
          "name": "_data",
          "type": "bytes"
        }
      ],
      "name": "safeTransferFrom",
      "outputs": [],
      "stateMutability": "payable",
      "type": "function"
    },
    {
      "inputs": [
        {
          "internalType": "address",
          "name": "operator",
          "type": "address"
        },
        {
          "internalType": "bool",
          "name": "approved",
          "type": "bool"
        }
      ],
      "name": "setApprovalForAll",
      "outputs": [],
      "stateMutability": "nonpayable",
      "type": "function"
    },
    {
      "inputs": [
        {
          "internalType": "string",
          "name": "baseURI",
          "type": "string"
        }
      ],
      "name": "setBaseURI",
      "outputs": [],
      "stateMutability": "nonpayable",
      "type": "function"
    },
    {
      "inputs": [
        {
          "internalType": "bool",
          "name": "active",
          "type": "bool"
        }
      ],
      "name": "setMintActive",
      "outputs": [],
      "stateMutability": "nonpayable",
      "type": "function"
    },
    {
      "inputs": [
        {
          "internalType": "bytes4",
          "name": "interfaceId",
          "type": "bytes4"
        }
      ],
      "name": "supportsInterface",
      "outputs": [
        {
          "internalType": "bool",
          "name": "",
          "type": "bool"
        }
      ],
      "stateMutability": "view",
      "type": "function"
    },
    {
      "inputs": [],
      "name": "symbol",
      "outputs": [
        {
          "internalType": "string",
          "name": "",
          "type": "string"
        }
      ],
      "stateMutability": "view",
      "type": "function"
    },
    {
      "inputs": [
        {
          "internalType": "uint256",
          "name": "tokenId",
          "type": "uint256"
        }
      ],
      "name": "tokenURI",
      "outputs": [
        {
          "internalType": "string",
          "name": "",
          "type": "string"
        }
      ],
      "stateMutability": "view",
      "type": "function"
    },
    {
      "inputs": [],
      "name": "totalSupply",
      "outputs": [
        {
          "internalType": "uint256",
          "name": "result",
          "type": "uint256"
        }
      ],
      "stateMutability": "view",
      "type": "function"
    },
    {
      "inputs": [
        {
          "internalType": "address",
          "name": "from",
          "type": "address"
        },
        {
          "internalType": "address",
          "name": "to",
          "type": "address"
        },
        {
          "internalType": "uint256",
          "name": "tokenId",
          "type": "uint256"
        }
      ],
      "name": "transferFrom",
      "outputs": [],
      "stateMutability": "payable",
      "type": "function"
    },
    {
      "inputs": [
        {
          "internalType": "address",
          "name": "newOwner",
          "type": "address"
        }
      ],
      "name": "transferOwnership",
      "outputs": [],
      "stateMutability": "nonpayable",
      "type": "function"
    },
    {
      "inputs": [],
      "name": "withdraw",
      "outputs": [],
      "stateMutability": "nonpayable",
      "type": "function"
    }
  ],
  "bytecode": "0x60806040526001600b60006101000a81548160ff0219169083151502179055503480156200002c57600080fd5b50604051620035cb380380620035cb83398181016040528101906200005291906200046f565b336040518060400160405280601081526020017f426c6f636b54656b20444a2050617373000000000000000000000000000000008152506040518060400160405280600481526020017f4254444a000000000000000000000000000000000000000000000000000000008152508160029081620000d091906200070b565b508060039081620000e291906200070b565b50620000f3620001db60201b60201c565b60008190555062000109620001db60201b60201c565b62000119620001e460201b60201c565b101562000139576200013863fed8210f60e01b6200020c60201b60201c565b5b5050600073ffffffffffffffffffffffffffffffffffffffff168173ffffffffffffffffffffffffffffffffffffffff1603620001b05760006040517f1e4fbdf7000000000000000000000000000000000000000000000000000000008152600401620001a7919062000837565b60405180910390fd5b620001c1816200021660201b60201c565b5080600a9081620001d391906200070b565b505062000854565b60006001905090565b60007fffffffffffffffffffffffffffffffffffffffffffffffffffffffffffffffff905090565b8060005260046000fd5b6000600960009054906101000a900473ffffffffffffffffffffffffffffffffffffffff16905081600960006101000a81548173ffffffffffffffffffffffffffffffffffffffff021916908373ffffffffffffffffffffffffffffffffffffffff1602179055508173ffffffffffffffffffffffffffffffffffffffff168173ffffffffffffffffffffffffffffffffffffffff167f8be0079c531659141344cd1fd0a4f28419497f9722a3daafe3b4186f6b6457e060405160405180910390a35050565b6000604051905090565b600080fd5b600080fd5b600080fd5b600080fd5b6000601f19601f8301169050919050565b7f4e487b7100000000000000000000000000000000000000000000000000000000600052604160045260246000fd5b6200034582620002fa565b810181811067ffffffffffffffff821117156200036757620003666200030b565b5b80604052505050565b60006200037c620002dc565b90506200038a82826200033a565b919050565b600067ffffffffffffffff821115620003ad57620003ac6200030b565b5b620003b882620002fa565b9050602081019050919050565b60005b83811015620003e5578082015181840152602081019050620003c8565b60008484015250505050565b60006200040862000402846200038f565b62000370565b905082815260208101848484011115620004275762000426620002f5565b5b62000434848285620003c5565b509392505050565b600082601f830112620004545762000453620002f0565b5b815162000466848260208601620003f1565b91505092915050565b600060208284031215620004885762000487620002e6565b5b600082015167ffffffffffffffff811115620004a957620004a8620002eb565b5b620004b7848285016200043c565b91505092915050565b600081519050919050565b7f4e487b7100000000000000000000000000000000000000000000000000000000600052602260045260246000fd5b600060028204905060018216806200051357607f821691505b602082108103620005295762000528620004cb565b5b50919050565b60008190508160005260206000209050919050565b60006020601f8301049050919050565b600082821b905092915050565b600060088302620005937fffffffffffffffffffffffffffffffffffffffffffffffffffffffffffffffff8262000554565b6200059f868362000554565b95508019841693508086168417925050509392505050565b6000819050919050565b6000819050919050565b6000620005ec620005e6620005e084620005b7565b620005c1565b620005b7565b9050919050565b6000819050919050565b6200060883620005cb565b620006206200061782620005f3565b84845462000561565b825550505050565b600090565b6200063762000628565b62000644818484620005fd565b505050565b5b818110156200066c57620006606000826200062d565b6001810190506200064a565b5050565b601f821115620006bb5762000685816200052f565b620006908462000544565b81016020851015620006a0578190505b620006b8620006af8562000544565b83018262000649565b50505b505050565b600082821c905092915050565b6000620006e060001984600802620006c0565b1980831691505092915050565b6000620006fb8383620006cd565b9150826002028217905092915050565b6200071682620004c0565b67ffffffffffffffff8111156200073257620007316200030b565b5b6200073e8254620004fa565b6200074b82828562000670565b600060209050601f8311600181146200078357600084156200076e578287015190505b6200077a8582620006ed565b865550620007ea565b601f19841662000793866200052f565b60005b82811015620007bd5784890151825560018201915060208501945060208101905062000796565b86831015620007dd5784890151620007d9601f891682620006cd565b8355505b6001600288020188555050505b505050505050565b600073ffffffffffffffffffffffffffffffffffffffff82169050919050565b60006200081f82620007f2565b9050919050565b620008318162000812565b82525050565b60006020820190506200084e600083018462000826565b92915050565b612d6780620008646000396000f3fe6080604052600436106101815760003560e01c806370a08231116100d1578063b88d4fde1161008a578063dc33e68111610064578063dc33e6811461051b578063e985e9c514610558578063ee1cc94414610595578063f2fde38b146105be57610181565b8063b88d4fde14610497578063c002d23d146104b3578063c87b56dd146104de57610181565b806370a08231146103a8578063715018a6146103e55780638da5cb5b146103fc57806395d89b4114610427578063a0712d6814610452578063a22cb4651461046e57610181565b806323b872dd1161013e5780633ccfd60b116101185780633ccfd60b1461030f57806342842e0e1461032657806355f804b3146103425780636352211e1461036b57610181565b806323b872dd1461029d57806325fd90f3146102b957806332cb6b0c146102e457610181565b806301ffc9a71461018657806306fdde03146101c3578063081812fc146101ee578063095ea7b31461022b5780630f2cdd6c1461024757806318160ddd14610272575b600080fd5b34801561019257600080fd5b506101ad60048036038101906101a89190611e97565b6105e7565b6040516101ba9190611edf565b60405180910390f35b3480156101cf57600080fd5b506101d8610679565b6040516101e59190611f8a565b60405180910390f35b3480156101fa57600080fd5b5061021560048036038101906102109190611fe2565b61070b565b6040516102229190612050565b60405180910390f35b61024560048036038101906102409190612097565b610769565b005b34801561025357600080fd5b5061025c610779565b60405161026991906120e6565b60405180910390f35b34801561027e57600080fd5b5061028761077e565b60405161029491906120e6565b60405180910390f35b6102b760048036038101906102b29190612101565b6107cb565b005b3480156102c557600080fd5b506102ce610a8c565b6040516102db9190611edf565b60405180910390f35b3480156102f057600080fd5b506102f9610a9f565b60405161030691906120e6565b60405180910390f35b34801561031b57600080fd5b50610324610aa5565b005b610340600480360381019061033b9190612101565b610b46565b005b34801561034e57600080fd5b50610369600480360381019061036491906121b9565b610b66565b005b34801561037757600080fd5b50610392600480360381019061038d9190611fe2565b610b84565b60405161039f9190612050565b60405180910390f35b3480156103b457600080fd5b506103cf60048036038101906103ca9190612206565b610b96565b6040516103dc91906120e6565b60405180910390f35b3480156103f157600080fd5b506103fa610c2d565b005b34801561040857600080fd5b50610411610c41565b60405161041e9190612050565b60405180910390f35b34801561043357600080fd5b5061043c610c6b565b6040516104499190611f8a565b60405180910390f35b61046c60048036038101906104679190611fe2565b610cfd565b005b34801561047a57600080fd5b506104956004803603810190610490919061225f565b610eb9565b005b6104b160048036038101906104ac91906123cf565b610fc4565b005b3480156104bf57600080fd5b506104c8611016565b6040516104d591906120e6565b60405180910390f35b3480156104ea57600080fd5b5061050560048036038101906105009190611fe2565b611021565b6040516105129190611f8a565b60405180910390f35b34801561052757600080fd5b50610542600480360381019061053d9190612206565b6110c8565b60405161054f91906120e6565b60405180910390f35b34801561056457600080fd5b5061057f600480360381019061057a9190612452565b6110da565b60405161058c9190611edf565b60405180910390f35b3480156105a157600080fd5b506105bc60048036038101906105b79190612492565b61116e565b005b3480156105ca57600080fd5b506105e560048036038101906105e09190612206565b611193565b005b60006301ffc9a760e01b827bffffffffffffffffffffffffffffffffffffffffffffffffffffffff1916148061064257506380ac58cd60e01b827bffffffffffffffffffffffffffffffffffffffffffffffffffffffff1916145b806106725750635b5e139f60e01b827bffffffffffffffffffffffffffffffffffffffffffffffffffffffff1916145b9050919050565b606060028054610688906124ee565b80601f01602080910402602001604051908101604052809291908181526020018280546106b4906124ee565b80156107015780601f106106d657610100808354040283529160200191610701565b820191906000526020600020905b8154815290600101906020018083116106e457829003601f168201915b5050505050905090565b600061071682611219565b61072b5761072a63cf4700e460e01b6112c5565b5b6006600083815260200190815260200160002060000160009054906101000a900473ffffffffffffffffffffffffffffffffffffffff169050919050565b610775828260016112cf565b5050565b600581565b60006107886113fe565b600154600054030390507fffffffffffffffffffffffffffffffffffffffffffffffffffffffffffffffff6107bb611407565b146107c857600854810190505b90565b60006107d68261142f565b905073ffffffffffffffffffffffffffffffffffffffff8473ffffffffffffffffffffffffffffffffffffffff161693508373ffffffffffffffffffffffffffffffffffffffff168173ffffffffffffffffffffffffffffffffffffffff161461084b5761084a63a114810060e01b6112c5565b5b60008061085784611548565b9150915061086d818761086861156f565b611577565b610898576108828661087d61156f565b6110da565b610897576108966359c896be60e01b6112c5565b5b5b6108a586868660016115bb565b80156108b057600082555b600560008773ffffffffffffffffffffffffffffffffffffffff1673ffffffffffffffffffffffffffffffffffffffff168152602001908152602001600020600081546001900391905081905550600560008673ffffffffffffffffffffffffffffffffffffffff1673ffffffffffffffffffffffffffffffffffffffff168152602001908152602001600020600081546001019190508190555061097e8561095a8888876115c1565b7c0200000000000000000000000000000000000000000000000000000000176115e9565b600460008681526020019081526020016000208190555060007c0200000000000000000000000000000000000000000000000000000000841603610a045760006001850190506000600460008381526020019081526020016000205403610a02576000548114610a01578360046000838152602001908152602001600020819055505b5b505b600073ffffffffffffffffffffffffffffffffffffffff8673ffffffffffffffffffffffffffffffffffffffff161690508481887fddf252ad1be2c89b69c2b068fc378daa952ba7f163c4a11628f55a4df523b3ef600080a460008103610a7657610a7563ea553b3460e01b6112c5565b5b610a838787876001611614565b50505050505050565b600b60009054906101000a900460ff1681565b6103e881565b610aad61161a565b600047905060008111610af5576040517f08c379a0000000000000000000000000000000000000000000000000000000008152600401610aec9061256b565b60405180910390fd5b610afd610c41565b73ffffffffffffffffffffffffffffffffffffffff166108fc829081150290604051600060405180830381858888f19350505050158015610b42573d6000803e3d6000fd5b5050565b610b6183838360405180602001604052806000815250610fc4565b505050565b610b6e61161a565b8181600a9182610b7f929190612742565b505050565b6000610b8f8261142f565b9050919050565b60008073ffffffffffffffffffffffffffffffffffffffff168273ffffffffffffffffffffffffffffffffffffffff1603610bdc57610bdb638f4eb60460e01b6112c5565b5b67ffffffffffffffff600560008473ffffffffffffffffffffffffffffffffffffffff1673ffffffffffffffffffffffffffffffffffffffff16815260200190815260200160002054169050919050565b610c3561161a565b610c3f60006116a1565b565b6000600960009054906101000a900473ffffffffffffffffffffffffffffffffffffffff16905090565b606060038054610c7a906124ee565b80601f0160208091040260200160405190810160405280929190818152602001828054610ca6906124ee565b8015610cf35780601f10610cc857610100808354040283529160200191610cf3565b820191906000526020600020905b815481529060010190602001808311610cd657829003601f168201915b5050505050905090565b600b60009054906101000a900460ff16610d4c576040517f08c379a0000000000000000000000000000000000000000000000000000000008152600401610d439061285e565b60405180910390fd5b600081118015610d5d575060058111155b610d9c576040517f08c379a0000000000000000000000000000000000000000000000000000000008152600401610d93906128ca565b60405180910390fd5b6103e881610da861077e565b610db29190612919565b1115610df3576040517f08c379a0000000000000000000000000000000000000000000000000000000008152600401610dea90612999565b60405180910390fd5b600581610dff33611767565b610e099190612919565b1115610e4a576040517f08c379a0000000000000000000000000000000000000000000000000000000008152600401610e4190612a05565b60405180910390fd5b8066038d7ea4c68000610e5d9190612a25565b341015610e9f576040517f08c379a0000000000000000000000000000000000000000000000000000000008152600401610e9690612ab3565b60405180910390fd5b6000610ea96117be565b9050610eb533836117c7565b5050565b8060076000610ec661156f565b73ffffffffffffffffffffffffffffffffffffffff1673ffffffffffffffffffffffffffffffffffffffff16815260200190815260200160002060008473ffffffffffffffffffffffffffffffffffffffff1673ffffffffffffffffffffffffffffffffffffffff16815260200190815260200160002060006101000a81548160ff0219169083151502179055508173ffffffffffffffffffffffffffffffffffffffff16610f7361156f565b73ffffffffffffffffffffffffffffffffffffffff167f17307eab39ab6107e8899845ad3d59bd9653f200f220920489ca2b5937696c3183604051610fb89190611edf565b60405180910390a35050565b610fcf8484846107cb565b60008373ffffffffffffffffffffffffffffffffffffffff163b1461101057610ffa848484846117e5565b61100f5761100e63d1a57ed660e01b6112c5565b5b5b50505050565b66038d7ea4c6800081565b606061102c82611219565b61106b576040517f08c379a000000000000000000000000000000000000000000000000000000000815260040161106290612b1f565b60405180910390fd5b6000611075611914565b9050600081511161109557604051806020016040528060008152506110c0565b8061109f846119a6565b6040516020016110b0929190612bc7565b6040516020818303038152906040525b915050919050565b60006110d382611767565b9050919050565b6000600760008473ffffffffffffffffffffffffffffffffffffffff1673ffffffffffffffffffffffffffffffffffffffff16815260200190815260200160002060008373ffffffffffffffffffffffffffffffffffffffff1673ffffffffffffffffffffffffffffffffffffffff16815260200190815260200160002060009054906101000a900460ff16905092915050565b61117661161a565b80600b60006101000a81548160ff02191690831515021790555050565b61119b61161a565b600073ffffffffffffffffffffffffffffffffffffffff168173ffffffffffffffffffffffffffffffffffffffff160361120d5760006040517f1e4fbdf70000000000000000000000000000000000000000000000000000000081526004016112049190612050565b60405180910390fd5b611216816116a1565b50565b6000816112246113fe565b116112bf57611231611407565b82111561125b576112546004600084815260200190815260200160002054611a74565b90506112c0565b6000548210156112be5760005b6000600460008581526020019081526020016000205491508103611297578261129090612bf6565b9250611268565b60007c01000000000000000000000000000000000000000000000000000000008216149150505b5b5b919050565b8060005260046000fd5b60006112da83610b84565b905081801561131c57508073ffffffffffffffffffffffffffffffffffffffff1661130361156f565b73ffffffffffffffffffffffffffffffffffffffff1614155b15611348576113328161132d61156f565b6110da565b6113475761134663cfb3b94260e01b6112c5565b5b5b836006600085815260200190815260200160002060000160006101000a81548173ffffffffffffffffffffffffffffffffffffffff021916908373ffffffffffffffffffffffffffffffffffffffff160217905550828473ffffffffffffffffffffffffffffffffffffffff168273ffffffffffffffffffffffffffffffffffffffff167f8c5be1e5ebec7d5bd14f71427d1e84f3dd0314c0f7b2291e5b200ac8c7c3b92560405160405180910390a450505050565b60006001905090565b60007fffffffffffffffffffffffffffffffffffffffffffffffffffffffffffffffff905090565b60008161143a6113fe565b11611532576004600083815260200190815260200160002054905061145d611407565b8211156114825761146d81611a74565b6115435761148163df2d9b4260e01b6112c5565b5b600081036115095760005482106114a4576114a363df2d9b4260e01b6112c5565b5b5b600460008360019003935083815260200190815260200160002054905060008103156115045760007c0100000000000000000000000000000000000000000000000000000000821603156115435761150363df2d9b4260e01b6112c5565b5b6114a5565b60007c010000000000000000000000000000000000000000000000000000000082160315611543575b61154263df2d9b4260e01b6112c5565b5b919050565b60008060006006600085815260200190815260200160002090508092508254915050915091565b600033905090565b600073ffffffffffffffffffffffffffffffffffffffff8316925073ffffffffffffffffffffffffffffffffffffffff821691508382148383141790509392505050565b50505050565b60008060e883901c905060e86115d8868684611ab5565b62ffffff16901b9150509392505050565b600073ffffffffffffffffffffffffffffffffffffffff83169250814260a01b178317905092915050565b50505050565b611622611abe565b73ffffffffffffffffffffffffffffffffffffffff16611640610c41565b73ffffffffffffffffffffffffffffffffffffffff161461169f57611663611abe565b6040517f118cdaa70000000000000000000000000000000000000000000000000000000081526004016116969190612050565b60405180910390fd5b565b6000600960009054906101000a900473ffffffffffffffffffffffffffffffffffffffff16905081600960006101000a81548173ffffffffffffffffffffffffffffffffffffffff021916908373ffffffffffffffffffffffffffffffffffffffff1602179055508173ffffffffffffffffffffffffffffffffffffffff168173ffffffffffffffffffffffffffffffffffffffff167f8be0079c531659141344cd1fd0a4f28419497f9722a3daafe3b4186f6b6457e060405160405180910390a35050565b600067ffffffffffffffff6040600560008573ffffffffffffffffffffffffffffffffffffffff1673ffffffffffffffffffffffffffffffffffffffff16815260200190815260200160002054901c169050919050565b60008054905090565b6117e1828260405180602001604052806000815250611ac6565b5050565b60008373ffffffffffffffffffffffffffffffffffffffff1663150b7a0261180b61156f565b8786866040518563ffffffff1660e01b815260040161182d9493929190612c74565b6020604051808303816000875af192505050801561186957506040513d601f19601f820116820180604052508101906118669190612cd5565b60015b6118c1573d8060008114611899576040519150601f19603f3d011682016040523d82523d6000602084013e61189e565b606091505b5060008151036118b9576118b863d1a57ed660e01b6112c5565b5b805181602001fd5b63150b7a0260e01b7bffffffffffffffffffffffffffffffffffffffffffffffffffffffff1916817bffffffffffffffffffffffffffffffffffffffffffffffffffffffff191614915050949350505050565b6060600a8054611923906124ee565b80601f016020809104026020016040519081016040528092919081815260200182805461194f906124ee565b801561199c5780601f106119715761010080835404028352916020019161199c565b820191906000526020600020905b81548152906001019060200180831161197f57829003601f168201915b5050505050905090565b6060600060016119b584611b42565b01905060008167ffffffffffffffff8111156119d4576119d36122a4565b5b6040519080825280601f01601f191660200182016040528015611a065781602001600182028036833780820191505090505b509050600082602083010190505b600115611a69578080600190039150507f3031323334353637383961626364656600000000000000000000000000000000600a86061a8153600a8581611a5d57611a5c612d02565b5b04945060008503611a14575b819350505050919050565b60007c0100000000000000000000000000000000000000000000000000000000821673ffffffffffffffffffffffffffffffffffffffff8316119050919050565b60009392505050565b600033905090565b611ad08383611c95565b60008373ffffffffffffffffffffffffffffffffffffffff163b14611b3d57600080549050600083820390505b611b1060008683806001019450866117e5565b611b2557611b2463d1a57ed660e01b6112c5565b5b818110611afd578160005414611b3a57600080fd5b50505b505050565b600080600090507a184f03e93ff9f4daa797ed6e38ed64bf6a1f0100000000000000008310611ba0577a184f03e93ff9f4daa797ed6e38ed64bf6a1f0100000000000000008381611b9657611b95612d02565b5b0492506040810190505b6d04ee2d6d415b85acef81000000008310611bdd576d04ee2d6d415b85acef81000000008381611bd357611bd2612d02565b5b0492506020810190505b662386f26fc100008310611c0c57662386f26fc100008381611c0257611c01612d02565b5b0492506010810190505b6305f5e1008310611c35576305f5e1008381611c2b57611c2a612d02565b5b0492506008810190505b6127108310611c5a576127108381611c5057611c4f612d02565b5b0492506004810190505b60648310611c7d5760648381611c7357611c72612d02565b5b0492506002810190505b600a8310611c8c576001810190505b80915050919050565b60008054905060008203611cb457611cb363b562e8dd60e01b6112c5565b5b611cc160008483856115bb565b611ce183611cd260008660006115c1565b611cdb85611e1b565b176115e9565b6004600083815260200190815260200160002081905550600160406001901b178202600560008573ffffffffffffffffffffffffffffffffffffffff1673ffffffffffffffffffffffffffffffffffffffff16815260200190815260200160002060008282540192505081905550600073ffffffffffffffffffffffffffffffffffffffff8473ffffffffffffffffffffffffffffffffffffffff1616905060008103611d9957611d98632e07630060e01b6112c5565b5b600083830190506000839050611dad611407565b600183031115611dc857611dc76381647e3a60e01b6112c5565b5b5b808360007fddf252ad1be2c89b69c2b068fc378daa952ba7f163c4a11628f55a4df523b3ef600080a4818160010191508103611dc95781600081905550505050611e166000848385611614565b505050565b60006001821460e11b9050919050565b6000604051905090565b600080fd5b600080fd5b60007fffffffff0000000000000000000000000000000000000000000000000000000082169050919050565b611e7481611e3f565b8114611e7f57600080fd5b50565b600081359050611e9181611e6b565b92915050565b600060208284031215611ead57611eac611e35565b5b6000611ebb84828501611e82565b91505092915050565b60008115159050919050565b611ed981611ec4565b82525050565b6000602082019050611ef46000830184611ed0565b92915050565b600081519050919050565b600082825260208201905092915050565b60005b83811015611f34578082015181840152602081019050611f19565b60008484015250505050565b6000601f19601f8301169050919050565b6000611f5c82611efa565b611f668185611f05565b9350611f76818560208601611f16565b611f7f81611f40565b840191505092915050565b60006020820190508181036000830152611fa48184611f51565b905092915050565b6000819050919050565b611fbf81611fac565b8114611fca57600080fd5b50565b600081359050611fdc81611fb6565b92915050565b600060208284031215611ff857611ff7611e35565b5b600061200684828501611fcd565b91505092915050565b600073ffffffffffffffffffffffffffffffffffffffff82169050919050565b600061203a8261200f565b9050919050565b61204a8161202f565b82525050565b60006020820190506120656000830184612041565b92915050565b6120748161202f565b811461207f57600080fd5b50565b6000813590506120918161206b565b92915050565b600080604083850312156120ae576120ad611e35565b5b60006120bc85828601612082565b92505060206120cd85828601611fcd565b9150509250929050565b6120e081611fac565b82525050565b60006020820190506120fb60008301846120d7565b92915050565b60008060006060848603121561211a57612119611e35565b5b600061212886828701612082565b935050602061213986828701612082565b925050604061214a86828701611fcd565b9150509250925092565b600080fd5b600080fd5b600080fd5b60008083601f84011261217957612178612154565b5b8235905067ffffffffffffffff81111561219657612195612159565b5b6020830191508360018202830111156121b2576121b161215e565b5b9250929050565b600080602083850312156121d0576121cf611e35565b5b600083013567ffffffffffffffff8111156121ee576121ed611e3a565b5b6121fa85828601612163565b92509250509250929050565b60006020828403121561221c5761221b611e35565b5b600061222a84828501612082565b91505092915050565b61223c81611ec4565b811461224757600080fd5b50565b60008135905061225981612233565b92915050565b6000806040838503121561227657612275611e35565b5b600061228485828601612082565b92505060206122958582860161224a565b9150509250929050565b600080fd5b7f4e487b7100000000000000000000000000000000000000000000000000000000600052604160045260246000fd5b6122dc82611f40565b810181811067ffffffffffffffff821117156122fb576122fa6122a4565b5b80604052505050565b600061230e611e2b565b905061231a82826122d3565b919050565b600067ffffffffffffffff82111561233a576123396122a4565b5b61234382611f40565b9050602081019050919050565b82818337600083830152505050565b600061237261236d8461231f565b612304565b90508281526020810184848401111561238e5761238d61229f565b5b612399848285612350565b509392505050565b600082601f8301126123b6576123b5612154565b5b81356123c684826020860161235f565b91505092915050565b600080600080608085870312156123e9576123e8611e35565b5b60006123f787828801612082565b945050602061240887828801612082565b935050604061241987828801611fcd565b925050606085013567ffffffffffffffff81111561243a57612439611e3a565b5b612446878288016123a1565b91505092959194509250565b6000806040838503121561246957612468611e35565b5b600061247785828601612082565b925050602061248885828601612082565b9150509250929050565b6000602082840312156124a8576124a7611e35565b5b60006124b68482850161224a565b91505092915050565b7f4e487b7100000000000000000000000000000000000000000000000000000000600052602260045260246000fd5b6000600282049050600182168061250657607f821691505b602082108103612519576125186124bf565b5b50919050565b7f4e6f2066756e647320746f207769746864726177000000000000000000000000600082015250565b6000612555601483611f05565b91506125608261251f565b602082019050919050565b6000602082019050818103600083015261258481612548565b9050919050565b600082905092915050565b60008190508160005260206000209050919050565b60006020601f8301049050919050565b600082821b905092915050565b6000600883026125f87fffffffffffffffffffffffffffffffffffffffffffffffffffffffffffffffff826125bb565b61260286836125bb565b95508019841693508086168417925050509392505050565b6000819050919050565b600061263f61263a61263584611fac565b61261a565b611fac565b9050919050565b6000819050919050565b61265983612624565b61266d61266582612646565b8484546125c8565b825550505050565b600090565b612682612675565b61268d818484612650565b505050565b5b818110156126b1576126a660008261267a565b600181019050612693565b5050565b601f8211156126f6576126c781612596565b6126d0846125ab565b810160208510156126df578190505b6126f36126eb856125ab565b830182612692565b50505b505050565b600082821c905092915050565b6000612719600019846008026126fb565b1980831691505092915050565b60006127328383612708565b9150826002028217905092915050565b61274c838361258b565b67ffffffffffffffff811115612765576127646122a4565b5b61276f82546124ee565b61277a8282856126b5565b6000601f8311600181146127a95760008415612797578287013590505b6127a18582612726565b865550612809565b601f1984166127b786612596565b60005b828110156127df578489013582556001820191506020850194506020810190506127ba565b868310156127fc57848901356127f8601f891682612708565b8355505b6001600288020188555050505b50505050505050565b7f4d696e74696e6720697320706175736564000000000000000000000000000000600082015250565b6000612848601183611f05565b915061285382612812565b602082019050919050565b600060208201905081810360008301526128778161283b565b9050919050565b7f496e76616c6964207175616e7469747900000000000000000000000000000000600082015250565b60006128b4601083611f05565b91506128bf8261287e565b602082019050919050565b600060208201905081810360008301526128e3816128a7565b9050919050565b7f4e487b7100000000000000000000000000000000000000000000000000000000600052601160045260246000fd5b600061292482611fac565b915061292f83611fac565b9250828201905080821115612947576129466128ea565b5b92915050565b7f45786365656473206d617820737570706c790000000000000000000000000000600082015250565b6000612983601283611f05565b915061298e8261294d565b602082019050919050565b600060208201905081810360008301526129b281612976565b9050919050565b7f457863656564732077616c6c6574206c696d6974000000000000000000000000600082015250565b60006129ef601483611f05565b91506129fa826129b9565b602082019050919050565b60006020820190508181036000830152612a1e816129e2565b9050919050565b6000612a3082611fac565b9150612a3b83611fac565b9250828202612a4981611fac565b91508282048414831517612a6057612a5f6128ea565b5b5092915050565b7f4e6f7420656e6f75676820455448000000000000000000000000000000000000600082015250565b6000612a9d600e83611f05565b9150612aa882612a67565b602082019050919050565b60006020820190508181036000830152612acc81612a90565b9050919050565b7f546f6b656e20646f6573206e6f74206578697374000000000000000000000000600082015250565b6000612b09601483611f05565b9150612b1482612ad3565b602082019050919050565b60006020820190508181036000830152612b3881612afc565b9050919050565b600081905092915050565b6000612b5582611efa565b612b5f8185612b3f565b9350612b6f818560208601611f16565b80840191505092915050565b7f2e6a736f6e000000000000000000000000000000000000000000000000000000600082015250565b6000612bb1600583612b3f565b9150612bbc82612b7b565b600582019050919050565b6000612bd38285612b4a565b9150612bdf8284612b4a565b9150612bea82612ba4565b91508190509392505050565b6000612c0182611fac565b915060008203612c1457612c136128ea565b5b600182039050919050565b600081519050919050565b600082825260208201905092915050565b6000612c4682612c1f565b612c508185612c2a565b9350612c60818560208601611f16565b612c6981611f40565b840191505092915050565b6000608082019050612c896000830187612041565b612c966020830186612041565b612ca360408301856120d7565b8181036060830152612cb58184612c3b565b905095945050505050565b600081519050612ccf81611e6b565b92915050565b600060208284031215612ceb57612cea611e35565b5b6000612cf984828501612cc0565b91505092915050565b7f4e487b7100000000000000000000000000000000000000000000000000000000600052601260045260246000fdfea26469706673582212203ef7caa93a33d956653b322c8e8276c27e3d793e5f46ca85d7c860076f97fbf064736f6c63430008140033",
  "linkReferences": {},
  "deployedLinkReferences": {}
}